{
  "contractName": "MyContractEvents",
  "abi": [
    {
      "anonymous": false,
      "inputs": [
        {
          "indexed": true,
          "name": "id",
          "type": "uint256"
        },
        {
          "indexed": true,
          "name": "date",
          "type": "uint256"
        },
        {
          "indexed": false,
          "name": "value",
          "type": "string"
        }
      ],
      "name": "MyEvent",
      "type": "event"
    },
    {
      "constant": false,
      "inputs": [
        {
          "name": "value",
          "type": "string"
        }
      ],
      "name": "emitEvent",
      "outputs": [],
      "payable": false,
      "stateMutability": "nonpayable",
      "type": "function"
    }
  ],
  "bytecode": "0x608060405234801561001057600080fd5b50610112806100206000396000f300608060405260043610603f576000357c0100000000000000000000000000000000000000000000000000000000900463ffffffff168063982296a8146044575b600080fd5b348015604f57600080fd5b50607a600480360381019080803590602001908201803590602001919091929391929390505050607c565b005b426000547fb471d59b9e8fe78ab0670c11fe84df6ab431139b43533ab6764e0b15b8d6c39a8484604051808060200182810382528484828181526020019250808284378201915050935050505060405180910390a3600080815480929190600101919050555050505600a165627a7a72305820fbf97dc3a9d3337e361484214f09121c41be723a1c5893a5d1cd30daddef602f0029",
  "source": "pragma solidity ^0.4.2;\r\n\r\ncontract MyContractEvents {\r\n    event MyEvent(\r\n        uint indexed id,\r\n        uint indexed date,\r\n        string value\r\n    );\r\n\r\n    uint nextId;\r\n\r\n    function emitEvent(string value) external {\r\n        emit MyEvent(nextId, now, value);\r\n        nextId++;\r\n    }\r\n}",
  "sourcePath": "D:/Alvin/blockchain/web3-frontend/contracts/MyContractEvents.sol",
  "compiler": {
    "name": "solc",
    "version": "0.4.26+commit.4563c3fc.Emscripten.clang"
  },
  "schemaVersion": "3.2.3",
  "updatedAt": "2021-09-05T10:05:35.922Z",
  "networkType": "ethereum",
  "devdoc": {
    "methods": {}
  },
  "userdoc": {
    "methods": {}
  }
}