{
  "contractName": "MyContract",
  "abi": [
    {
      "constant": true,
      "inputs": [],
      "name": "functionCalled",
      "outputs": [
        {
          "name": "",
          "type": "string"
        }
      ],
      "payable": false,
      "stateMutability": "view",
      "type": "function"
    },
    {
      "constant": true,
      "inputs": [],
      "name": "getData",
      "outputs": [
        {
          "name": "",
          "type": "uint256"
        }
      ],
      "payable": false,
      "stateMutability": "view",
      "type": "function"
    },
    {
      "constant": false,
      "inputs": [
        {
          "name": "_data",
          "type": "uint256"
        }
      ],
      "name": "setData",
      "outputs": [],
      "payable": false,
      "stateMutability": "nonpayable",
      "type": "function"
    },
    {
      "constant": false,
      "inputs": [],
      "name": "sendEther",
      "outputs": [],
      "payable": true,
      "stateMutability": "payable",
      "type": "function"
    }
  ],
  "bytecode": "0x6080604052607b60005534801561001557600080fd5b50610329806100256000396000f300608060405260043610610062576000357c0100000000000000000000000000000000000000000000000000000000900463ffffffff1680630e29df22146100675780633bc5de30146100715780635b4b73a91461009c578063cc81afc8146100c9575b600080fd5b61006f610159565b005b34801561007d57600080fd5b506100866101a7565b6040518082815260200191505060405180910390f35b3480156100a857600080fd5b506100c7600480360381019080803590602001909291905050506101b0565b005b3480156100d557600080fd5b506100de6101ba565b6040518080602001828103825283818151815260200191508051906020019080838360005b8381101561011e578082015181840152602081019050610103565b50505050905090810190601f16801561014b5780820380516001836020036101000a031916815260200191505b509250505060405180910390f35b6040805190810160405280600981526020017f73656e6445746865720000000000000000000000000000000000000000000000815250600190805190602001906101a4929190610258565b50565b60008054905090565b8060008190555050565b60018054600181600116156101000203166002900480601f0160208091040260200160405190810160405280929190818152602001828054600181600116156101000203166002900480156102505780601f1061022557610100808354040283529160200191610250565b820191906000526020600020905b81548152906001019060200180831161023357829003601f168201915b505050505081565b828054600181600116156101000203166002900490600052602060002090601f016020900481019282601f1061029957805160ff19168380011785556102c7565b828001600101855582156102c7579182015b828111156102c65782518255916020019190600101906102ab565b5b5090506102d491906102d8565b5090565b6102fa91905b808211156102f65760008160009055506001016102de565b5090565b905600a165627a7a7230582076fc8b1ae3fa0b0e86242edd62dbc405c33ef07db7e031d793695962abcc51030029",
  "source": "pragma solidity ^0.4.2;\r\n\r\ncontract MyContract {\r\n    uint data = 123;\r\n    string public functionCalled;\r\n\r\n    function getData() external view returns(uint) {\r\n        return data;\r\n    }\r\n    function setData(uint _data) external {\r\n        data = _data;\r\n    }\r\n\r\n    function setDataPrivate(uint _data) private {\r\n        data = _data + 10;\r\n    }\r\n\r\n    function sendEther() external payable {\r\n        functionCalled = 'sendEther';\r\n    }\r\n\r\n    // function() external payable {\r\n    //     functionCalled = 'fallback';\r\n    // }\r\n}",
  "sourcePath": "D:/Alvin/blockchain/web3-frontend/contracts/MyContract.sol",
  "compiler": {
    "name": "solc",
    "version": "0.4.26+commit.4563c3fc.Emscripten.clang"
  },
  "schemaVersion": "3.2.3",
  "updatedAt": "2021-09-05T10:05:35.919Z",
  "networkType": "ethereum",
  "devdoc": {
    "methods": {}
  },
  "userdoc": {
    "methods": {}
  }
}